:1000000012C02CC02BC02AC029C028C027C026C0BF
:1000100025C024C023C022C021C020C01FC01FC0D3
:100020001DC01CC01BC011241FBECFE5D4E0DEBF25
:10003000CDBF10E0A0E6B0E0EEEDF0E002C005902C
:100040000D92A036B107D9F710E0A0E6B0E001C0EC
:100050001D92A236B107E1F736D03FC0D1CF1F9233
:100060000F920FB60F9211248F939F93AF93BF936C
:10007000EF93FF93DF93CF93CDB7DEB7EEE3F0E0DE
:1000800081E090E091838083EDE3F0E081E0808384
:10009000ACE3B0E0ECE3F0E0808184608C93ACE30F
:1000A000B0E0ECE3F0E0808182608C93CF91DF914F
:1000B000FF91EF91BF91AF919F918F910F900FBEE4
:1000C0000F901F901895DF93CF93CDB7DEB7ECE379
:0E00D000F0E088E080837894FFCFF894FFCFB3
:00000001FF
