:1000000012C02CC02BC02AC029C028C027C026C0BF
:1000100025C024C023C022C021C020C01FC01EC0D4
:100020001DC01CC01BC011241FBECFE5D4E0DEBF25
:10003000CDBF10E0A0E6B0E0E4ECF0E002C0059037
:100040000D92A036B107D9F710E0A0E6B0E001C0EC
:100050001D92A036B107E1F720D032C0D1CFDF9397
:10006000CF93CDB7DEB7E7E3F0E080E18083EDE248
:10007000F0E080E48083CF91DF910895DF93CF9308
:10008000CDB7DEB7EEE2F0E080818823DCF7EFE267
:10009000F0E08081CF91DF9108950F931F93DF935C
:1000A000CF93CDB7DEB7E1E3F0E08FEF8083E2E3FB
:1000B000F0E0108202E310E0E1DFF8018083FACF84
:0400C000F894FFCFE2
:00000001FF
