:1000000012C02DC02BC02AC029C028C027C026C0BE
:1000100025C024C023C022C021C020C01FC01EC0D4
:100020001DC01CC01BC011241FBECFE5D4E0DEBF25
:10003000CDBF10E0A0E6B0E0EAEEF0E002C005902F
:100040000D92A036B107D9F710E0A0E6B0E001C0EC
:100050001D92A236B107E1F723D045C0D1CF1F9240
:100060000F920FB60F9211248F93AF93BF93EF931C
:10007000FF93DF93CF93CDB7DEB7A2E3B0E0E2E327
:10008000F0E0808180958C93CF91DF91FF91EF918B
:10009000BF91AF918F910F900FBE0F901F90189549
:1000A000DF93CF93CDB7DEB7A5E5B0E0E5E5F0E0AF
:1000B000808182688C93A1E3B0E0E1E3F0E080818D
:1000C00080618C93A2E3B0E0E2E3F0E080818460A1
:1000D0008C93ABE5B0E0EBE5F0E0808180648C933D
:0A00E00078948895FECFF894FFCFC6
:00000001FF
