:1000000012C02CC02BC02AC029C028C027C026C0BF
:1000100025C024C023C023C021C020C01FC01EC0D3
:100020001DC01CC01BC011241FBECFE5D4E0DEBF25
:10003000CDBF10E0A0E6B0E0E0E6F1E002C0059040
:100040000D92A036B107D9F710E0A0E6B0E001C0EC
:100050001D92A436B107E1F75ED080C0D1CF1F92C8
:100060000F920FB60F9211248F939F93EF93FF93EC
:10007000DF93CF93CDB7DEB7ECE2F0E08081882F3D
:1000800090E0909363008093620081E090E0909311
:10009000610080936000CF91DF91FF91EF919F917C
:1000A0008F910F900FBE0F901F901895DF93CF93F5
:1000B000CDB7DEB7E0E4F0E01082E9E2F0E08CE0FA
:1000C0008083AAE2B0E0EAE2F0E0808188698C9364
:1000D000A0E4B0E0E0E4F0E0808186688C93CF910A
:1000E000DF910895DF93CF9300D0CDB7DEB79A8329
:1000F0008983EBE2F0E08081882F90E0807290703D
:100100000097B9F3ECE2F0E0898180830F900F90C3
:10011000CF91DF910895DF93CF93CDB7DEB7C6DFE0
:1001200078948FE390E0DEDF809160009091610031
:1001300081309105C9F710926100109260008091A2
:100140006200909163000196909363008093620037
:100150008091620090916300C5DFE6CFF894FFCFF5
:00000001FF
