:1000000012C02CC02BC02AC029C028C027C026C0BF
:1000100025C024C023C022C021C020C01FC01EC0D4
:100020001DC01CC01BC011241FBECFE5D4E0DEBF25
:10003000CDBF10E0A0E6B0E0E8E6F1E002C0059038
:100040000D92A437B107D9F710E0A4E7B0E001C0E2
:100050001D92A637B107E1F72FD084C0D1CFDF932F
:10006000CF93CDB7DEB7E0E4F0E01082E9E2F0E054
:100070008CE08083EAE2F0E088E08083E0E4F0E076
:1000800086E88083CF91DF910895DF93CF930F921D
:10009000CDB7DEB78983EBE2F0E08081882F90E076
:1000A000807290700097B9F3ECE2F0E08981808370
:1000B0000F90CF91DF910895DF93CF93CDB7DEB747
:1000C0006B970FB6F894DEBF0FBECDBFC8DFCE0171
:1000D0000396988F8F8BA0E6B0E0BA8FA98FBCE013
:1000E000BB8FE98DFA8D0080898D9A8D01969A8F4C
:1000F000898FAF89B88D0C92EF89F88D3196F88F82
:10010000EF8BFB8DF150FB8F8B8D882351F788E0AF
:10011000FE013F96DF01982F1D929A95E9F71A820A
:10012000198229813A81CE010396FC01E20FF31F67
:100130008081882379F029813A81CE010396FC01E0
:10014000E20FF31F208189819A8101969A83898326
:10015000822F9BDF89819A818B30910514F31A825B
:080160001982DFCFF894FFCFF4
:1001680048656C6C6F204344414321000000000047
:040178000000000083
:00000001FF
