:1000000012C02CC02BC02AC029C028C027C026C0BF
:1000100026C024C023C022C021C020C01FC01EC0D3
:100020001DC01CC01BC011241FBECFE5D4E0DEBF25
:10003000CDBF10E0A0E6B0E0E8E0F1E002C005903E
:100040000D92A036B107D9F710E0A0E6B0E001C0EC
:100050001D92A236B107E1F71CD054C0D1CF1F9238
:100060000F920FB60F9211248F939F93DF93CF932C
:10007000CDB7DEB781E090E090936100809360009F
:10008000CF91DF919F918F910F900FBE0F901F9096
:100090001895DF93CF9300D00F92CDB7DEB7E7E38B
:1000A000F0E081E08083A9E5B0E0E9E5F0E080815F
:1000B00084608C93ECE4F0E011821082AEE4B0E056
:1000C000EEE4F0E0808185608C937894809160000C
:1000D0009091610081309105C9F7109261001092F2
:1000E000600088E390E09B838A83E8E3F0E080810E
:1000F0001982882311F491E099838981EA81FB8137
:080100008083E4CFF894FFCFE7
:00000001FF
