:1000000012C02CC02BC02AC029C028C027C026C0BF
:1000100025C024C023C022C021C020C01FC01EC0D4
:100020001DC01CC01BC011241FBECFE5D4E0DEBF25
:10003000CDBF10E0A0E6B0E0E0EDF0E002C005903A
:100040000D92A036B107D9F710E0A0E6B0E001C0EC
:100050001D92A236B107E1F70AD038C0D1CFDF93A5
:10006000CF93CDB7DEB70000CF91DF910895DF9336
:10007000CF93CDB7DEB7A7E3B0E0E7E3F0E0808150
:1000800088608C93A5E4B0E0E5E4F0E080818064D2
:100090008C93A5E4B0E0E5E4F0E0808180618C938E
:1000A000A5E4B0E0E5E4F0E0808180628C93E4E4D4
:1000B000F0E01082E3E4F0E088EC8083A5E4B0E0B7
:1000C000E5E4F0E0808181608C93FFCFF894FFCF6E
:00000001FF
