:1000000012C02DC049C065C029C028C027C026C065
:1000100025C024C023C022C021C020C01FC01EC0D4
:100020001DC01CC01BC011241FBECFE5D4E0DEBF25
:10003000CDBF10E0A0E6B0E0ECE8F1E002C0059032
:100040000D92A036B107D9F710E0A0E6B0E001C0EC
:100050001D92A436B107E1F769D096C0D1CF1F92A7
:100060000F920FB60F9211248F93EF93FF93DF93AC
:10007000CF93CDB7DEB7E4E4F0E01082E3E4F0E044
:100080008AE78083CF91DF91FF91EF918F910F905D
:100090000FBE0F901F9018951F920F920FB60F92E0
:1000A00011248F93EF93FF93DF93CF93CDB7DEB7F8
:1000B000E4E4F0E01082E3E4F0E084EF8083CF91A9
:1000C000DF91FF91EF918F910F900FBE0F901F90D6
:1000D00018951F920F920FB60F9211248F939F9332
:1000E000EF93FF93DF93CF9300D00F92CDB7DEB79E
:1000F00088E390E09B838A83E8E3F0E080811982C3
:10010000882311F491E099838981EA81FB818083BE
:100110000F900F900F90CF91DF91FF91EF919F91F2
:100120008F910F900FBE0F901F901895DF93CF9374
:10013000CDB7DEB7E1E3F0E01082A2E3B0E0E2E3A6
:10014000F0E080818C608C93E7E3F0E081E08083D5
:10015000E4E4F0E01082E3E4F0E01082E9E5F0E0AE
:1001600080E88083E5E4F0E08BE08083EBE5F0E07D
:1001700080EC8083A5E5B0E0E5E5F0E080818A6869
:0C0180008C9378948895FECFF894FFCF04
:00000001FF
