:1000000012C02CC02BC02BC029C028C027C026C0BE
:1000100025C024C023C022C021C020C01FC01EC0D4
:100020001DC01CC01BC011241FBECFE5D4E0DEBF25
:10003000CDBF10E0A0E6B0E0E8E6F1E002C0059038
:100040000D92A036B107D9F710E0A0E6B0E001C0EC
:100050001D92A436B107E1F72BD084C0D1CF1F92F7
:100060000F920FB60F9211248F939F93DF93CF932C
:1000700000D0CDB7DEB780916000909161001A8208
:100080001982009721F481E090E09A838983898125
:100090009A8190936100809360000F900F90CF91B0
:1000A000DF919F918F910F900FBE0F901F90189529
:1000B000DF93CF93CDB7DEB7A1E3B0E0E1E3F0E0AB
:1000C000808180628C93A1E3B0E0E1E3F0E0808185
:1000D00080648C93A2E3B0E0E2E3F0E080818F7D66
:1000E0008C93A2E3B0E0E2E3F0E080818F7B8C931D
:1000F000E4E4F0E01082E3E4F0E08DE38083A9E53E
:10010000B0E0E9E5F0E0808180688C93A5E4B0E0A0
:10011000E5E4F0E080818A608C937894A2E3B0E01B
:10012000E2E3F0E0808180628C93A2E3B0E0E2E35E
:10013000F0E080818F7B8C938091600090916100D2
:100140008130910559F7A2E3B0E0E2E3F0E080816D
:100150008F7D8C93A2E3B0E0E2E3F0E080818064E5
:080160008C93DCCFF894FFCF73
:00000001FF
