:1000000012C02DC02BC02AC029C028C027C026C0BE
:1000100025C024C023C022C021C020C01FC01EC0D4
:100020001DC01CC01BC011241FBECFE5D4E0DEBF25
:10003000CDBF10E0A0E6B0E0E8EFF0E002C0059030
:100040000D92A036B107D9F710E0A0E6B0E001C0EC
:100050001D92A236B107E1F72DD04CC0D1CF1F922F
:100060000F920FB60F921124DF93CF93CDB7DEB767
:10007000CF91DF910F900FBE0F901F901895DF93D7
:10008000CF93CDB7DEB7ECE4F0E082E890E0918367
:100090008083EEE4F0E081E08083E8E5F0E084E056
:1000A0008083ECE4F0E082E890E091838083CF915C
:1000B000DF910895DF93CF9300D0CDB7DEB7E1E3B2
:1000C000F0E08FEF8083E2E3F0E080EA80831A8241
:1000D000198206C0D4DF89819A8101969A83898327
:1000E00089819A818A309105ACF3E2E3F0E080E502
:0800F0008083E9CFF894FFCFF3
:00000001FF
