:1000000012C02DC02BC03BC029C028C027C026C0AD
:1000100025C024C023C022C021C020C01FC01EC0D4
:100020001DC01CC01BC011241FBECFE5D4E0DEBF25
:10003000CDBF10E0A0E6B0E0EEE2F1E002C0059036
:100040000D92A036B107D9F710E0A0E6B0E001C0EC
:100050001D92A436B107E1F73BD067C0D1CF1F9204
:100060000F920FB60F921124DF93CF93CDB7DEB767
:10007000CF91DF910F900FBE0F901F9018951F9298
:100080000F920FB60F9211248F939F93DF93CF930C
:1000900000D0CDB7DEB780916000909161001A82E8
:1000A0001982009721F481E090E09A838983898105
:1000B0009A8190936100809360000F900F90CF9190
:1000C000DF919F918F910F900FBE0F901F90189509
:1000D000DF93CF93CDB7DEB7E1E3F0E080EF80832D
:1000E000E4E4F0E01082E3E4F0E08DE38083A9E54E
:1000F000B0E0E9E5F0E0808180688C93A5E4B0E0B1
:10010000E5E4F0E080818A608C937894E2E3F0E0AB
:100110001082809160009091610081309105B1F76B
:0E012000E2E3F0E08FEF8083F1CFF894FFCFA1
:00000001FF
