:1000000012C02CC02BC02AC029C028C027C026C0BF
:1000100025C024C023C022C021C020C01FC01EC0D4
:100020001DC01CC01BC011241FBECFE5D4E0DEBF25
:10003000CDBF10E0A0E6B0E0E0EDF1E002C0059039
:100040000D92A036B107D9F710E0A0E6B0E001C0EC
:100050001D92A236B107E1F746D0B8C0D1CFDF93E9
:10006000CF9300D000D000D0CDB7DEB79E838D8374
:100070008D819E81AA2797FDA095BA2F20E432E4B6
:100080004FE050E0BC01CD0145D0DC01CB012FEFAA
:100090003FEF40E050E0BC01CD015BD0DA01C90187
:1000A00089839A83AB83BC83ECE4F0E089819A81F5
:1000B0008095909591838083AEE4B0E0EEE4F0E02B
:1000C000808185608C93A8E5B0E0E8E5F0E0808170
:1000D00084608C9326960FB6F894DEBF0FBECDBF1A
:1000E000CF91DF910895DF93CF93CDB7DEB7A7E32C
:1000F000B0E0E7E3F0E0808181608C93A8E3B0E0BA
:10010000E8E3F0E0908181E089278C9382E090E041
:10011000A6DFF4CF629FD001739FF001829FE00DB4
:10012000F11D649FE00DF11D929FF00D839FF00D76
:10013000749FF00D659FF00D9927729FB00DE11D22
:10014000F91F639FB00DE11DF91FBD01CF011124FF
:10015000089597FB092E05260ED057FD04D014D024
:100160000AD0001C38F450954095309521953F4FAA
:100170004F4F5F4F0895F6F7909580957095619574
:100180007F4F8F4F9F4F0895A1E21A2EAA1BBB1BD2
:10019000FD010DC0AA1FBB1FEE1FFF1FA217B30753
:1001A000E407F50720F0A21BB30BE40BF50B661F69
:1001B000771F881F991F1A9469F76095709580952D
:1001C00090959B01AC01BD01CF010895F894FFCF3C
:00000001FF
