:1000000012C02DC02BC02AC029C028C027C026C0BE
:1000100025C024C023C022C021C020C01FC01EC0D4
:100020001DC01CC01BC011241FBECFE5D4E0DEBF25
:10003000CDBF10E0A0E6B0E0E6E8F1E002C0059038
:100040000D92A036B107D9F710E0A0E6B0E001C0EC
:100050001D92A236B107E1F76DD093C0D1CF1F92A8
:100060000F920FB60F921124DF93CF93CDB7DEB767
:10007000CF91DF910F900FBE0F901F901895DF93D7
:10008000CF9300D0CDB7DEB79A838983ECE3F0E05D
:100090008081882F90E0827090700097B9F7EEE32E
:1000A000F0E089819A8191838083ACE3B0E0ECE356
:1000B000F0E0808181608C93EDE3F0E080810F902F
:1000C0000F90CF91DF910895DF93CF9300D00F92DF
:1000D000CDB7DEB79A8389836B83ECE3F0E0808150
:1000E000882F90E0827090700097B9F7E7E5F0E014
:1000F0008081882F90E0817090708823B9F7EEE3BB
:10010000F0E089819A8191838083EDE3F0E08B8137
:100110008083ECE3F0E084E08083ACE3B0E0ECE3E8
:10012000F0E0808182608C930F900F900F90CF91C0
:10013000DF910895DF93CF9300D0CDB7DEB762E0B3
:1001400081E090E0C1DF64E082E090E0BDDF66E046
:1001500083E090E0B9DF83E090E091DF882F90E0CA
:100160009A838983E7E3F0E08FEF8083E8E3F0E0B0
:100170008981808380E090E00F900F90CF91DF9194
:060180000895F894FFCF82
:00000001FF
