:1000000012C02CC02BC02AC029C028C027C026C0BF
:1000100025C024C023C022C021C020C01FC01EC0D4
:100020001DC01CC01BC011241FBECFE5D4E0DEBF25
:10003000CDBF10E0A0E6B0E0E6E9F1E102C0059036
:100040000D92AE36B107D9F710E0AEE6B0E001C0D0
:100050001D92AE36B107E1F702D09BC8D1CFDF9336
:10006000CF93CDB7DEB7AC970FB6F894DEBF0FBE17
:10007000CDBF1A8E198EE7E3F0E08FEF8083E8E3BF
:10008000F0E01082CE014B9699A788A7E0E6F0E059
:10009000FBA7EAA7FDE0FCA7EAA5FBA500808AA5CF
:1000A0009BA501969BA78AA7E8A5F9A5008288A52C
:1000B00099A5019699A788A79CA591509CA7ECA506
:1000C000EE2351F7A4E3B0E0E4E3F0E08081816047
:1000D0008C93A4E3B0E0E4E3F0E0808182608C9351
:1000E000A4E3B0E0E4E3F0E0808184608C93A5E3D6
:1000F000B0E0E5E3F0E080818E7F8C93A5E3B0E093
:10010000E5E3F0E080818D7F8C93A5E3B0E0E5E34B
:10011000F0E080818B7F8C93D1D01A8E198EC1C074
:10012000298D3A8DCE014B96FC01E20FF31F8081A1
:10013000D5D580E090E0A0E2B2E48D8B9E8BAF8BB2
:10014000B88F2BEA3AEA4AEA5EE36D897E898F89A5
:10015000988DBCD7DC01CB01898B9A8BAB8BBC8B88
:1001600020E030E040E85FE369897A898B899C89E7
:100170009CD688231CF481E0888B88C020E030E086
:100180004FE753E469897A898B899C899BD7181634
:100190000CF074C020E030E04AE754E46D897E89B9
:1001A0008F89988D86D6DC01CB018C879D87AE87A1
:1001B000BF8720E030E04AE753E46C857D858E857B
:1001C0009F8584D7DC01CB0188879987AA87BB8765
:1001D00020E030E040E85FE3688579858A859B858B
:1001E00064D688232CF481E090E09F838E833BC00B
:1001F00020E03FEF4FE757E4688579858A859B8546
:1002000061D718163CF520E030E040E251E46C85FF
:100210007D858E859F855AD7DC01CB01BC01CD0140
:10022000B0D6DC01CB019F838E830FC089E190E0C3
:100230009D838C838C819D810197F1F79D838C83B5
:100240008E819F8101979F838E838E819F810097EE
:1002500069F722C0688579858A859B8592D6DC01FD
:10026000CB019F838E838E819F819B838A838A812A
:100270009B810197F1F79B838A830EC069897A89F4
:100280008B899C897ED6DC01CB01888B8889898308
:1002900089818A95F1F78983898D9A8D01969A8F44
:1002A000898F298D3A8DCE014B96FC01E20FF31F09
:1002B0008081882309F034CF01D02FCF0F931F9373
:1002C000DF93CF93CDB7DEB7CE56D0400FB6F894BC
:1002D000DEBF0FBECDBFFE01E559FF4F80E090E0CD
:1002E000A8E4B3E480839183A283B3838E01095988
:1002F0001F4FFE01E559FF4F20E030E04AE753E48D
:100300006081718182819381E1D6DC01CB01F801AA
:1003100080839183A283B383FE01E959FF4F20E0DC
:1003200030E040E85FE36081718182819381BDD5D7
:10033000882344F4FE01EB59FF4F81E090E0918364
:10034000808360C0FE01E959FF4F20E03FEF4FE797
:1003500057E46081718182819381B4D618160CF0C4
:1003600041C0FE01E559FF4F20E030E040E251E49A
:100370006081718182819381A9D6DC01CB018E01DC
:100380000B591F4FBC01CD01FCD5DC01CB01F8019D
:10039000918380831FC0FE01ED59FF4F89E190E0FA
:1003A00091838083FE01ED59FF4F808191810197F8
:1003B000F1F7FE01ED59FF4F91838083DE01AB59C8
:1003C000BF4FFE01EB59FF4F80819181019711963C
:1003D0009C938E93FE01EB59FF4F80819181009792
:1003E000D1F626C08E010B591F4FFE01E959FF4F70
:1003F0006081718182819381C4D5DC01CB01F801D8
:1004000091838083DE01AF59BF4FFE01EB59FF4F4F
:10041000808191818D939C93FE01EF59FF4F8081E4
:1004200091810197F1F7FE01EF59FF4F918380838E
:1004300081E090E06BD3FE01E35AFF4F80E090E053
:10044000A0E2B2E480839183A283B3838E01075A32
:100450001F4FFE01E35AFF4F2BEA3AEA4AEA5EE3F6
:10046000608171818281938131D6DC01CB01F801F9
:1004700080839183A283B383FE01E75AFF4F20E07C
:1004800030E040E85FE360817181828193810DD526
:10049000882334F4FE01E85AFF4F81E08083D7C0FF
:1004A000FE01E75AFF4F20E030E04FE753E4608160
:1004B00071818281938106D618160CF0B9C0FE01B5
:1004C000E35AFF4F20E030E04AE754E46081718155
:1004D00082819381EED4DC01CB01FE01EC5AFF4F07
:1004E00080839183A283B3838E01005B1F4FFE0143
:1004F000EC5AFF4F20E030E04AE753E4608171811D
:1005000082819381E3D5DC01CB01F8018083918363
:10051000A283B383FE01E05BFF4F20E030E040E8C0
:100520005FE36081718182819381BFD4882344F429
:10053000FE01E25BFF4F81E090E09183808360C029
:10054000FE01E05BFF4F20E03FEF4FE757E46081A3
:10055000718182819381B6D518160CF041C0FE01DD
:10056000EC5AFF4F20E030E040E251E460817181BD
:1005700082819381ABD5DC01CB018E01025B1F4FE1
:10058000BC01CD01FED4DC01CB01F8019183808355
:100590001FC0FE01E45BFF4F89E190E091838083FF
:1005A000FE01E45BFF4F808191810197F1F7FE012D
:1005B000E45BFF4F91838083DE01A25BBF4FFE01AE
:1005C000E25BFF4F80819181019711969C938E93FE
:1005D000FE01E25BFF4F808191810097D1F649C017
:1005E0008E01025B1F4FFE01E05BFF4F6081718156
:1005F00082819381C6D4DC01CB01F8019183808391
:10060000DE01A65BBF4FFE01E25BFF4F808191815F
:1006100011969C938E93FE01E65BFF4F8081918142
:100620000197F1F7FE01E65BFF4F9183808321C0C4
:100630008E01085A1F4FFE01E75AFF4F60817181FA
:10064000828193819ED4DC01CB01F8018083DE019D
:10065000A75BBF4FFE01E85AFF4F80818C93FE01DC
:10066000E75BFF4F80818A95F1F7FE01E75BFF4F63
:10067000808383E390E04AD2FE01EB5BFF4F80E092
:1006800090E0A0E2B2E480839183A283B3838E01E1
:100690000F5B1F4FFE01EB5BFF4F2BEA3AEA4AEA82
:1006A0005EE3608171818281938110D5DC01CB0191
:1006B000F80180839183A283B383FE01EF5BFF4F38
:1006C00020E030E040E85FE36081718182819381C6
:1006D000ECD3882334F481E0FE01E05CFF4F80839B
:1006E00094C0FE01EF5BFF4F20E030E04FE753E4A2
:1006F0006081718182819381E5D418160CF077C0F6
:10070000FE01EB5BFF4F20E030E04AE754E46081FC
:10071000718182819381CDD3DC01CB018CAF9DAF00
:10072000AEAFBFAF20E030E04AE753E46CAD7DAD43
:100730008EAD9FADCBD4DC01CB0188AF99AFAAAF12
:10074000BBAF20E030E040E85FE368AD79AD8AAD53
:100750009BADABD388232CF481E090E09FAB8EABB4
:100760003BC020E03FEF4FE757E468AD79AD8AAD7D
:100770009BADA8D418163CF520E030E040E251E4EF
:100780006CAD7DAD8EAD9FADA1D4DC01CB01BC01C4
:10079000CD01F7D3DC01CB019FAB8EAB0FC089E15C
:1007A00090E09DAB8CAB8CA99DA90197F1F79DAB17
:1007B0008CAB8EA99FA901979FAB8EAB8EA99FA9E9
:1007C000009769F72BC068AD79AD8AAD9BADD9D3E1
:1007D000DC01CB019FAB8EAB8EA99FA99BAB8AABF3
:1007E0008AA99BA90197F1F79BAB8AAB17C0FE01C1
:1007F000EF5BFF4F6081718182819381C2D3DC0105
:10080000CB01FE01E05CFF4F8083FE01E05CFF4F07
:10081000808189AB89A98A95F1F789AB8FE090E057
:1008200075D180E090E0A0E2B2E48DA79EA7AFA7CB
:10083000B8AB2BEA3AEA4AEA5EE36DA57EA58FA53E
:1008400098A944D4DC01CB0189A79AA7ABA7BCA780
:1008500020E030E040E85FE369A57AA58BA59CA580
:1008600024D388231CF481E088A788C020E030E0EE
:100870004FE753E469A57AA58BA59CA523D4181648
:100880000CF074C020E030E04AE754E46DA57EA58A
:100890008FA598A90ED3DC01CB018CA39DA3AEA399
:1008A000BFA320E030E04AE753E46CA17DA18EA114
:1008B0009FA10CD4DC01CB0188A399A3AAA3BBA35D
:1008C00020E030E040E85FE368A179A18AA19BA124
:1008D000ECD288232CF481E090E09F8F8E8F3BC078
:1008E00020E03FEF4FE757E468A179A18AA19BA1DF
:1008F000E9D318163CF520E030E040E251E46CA169
:100900007DA18EA19FA1E2D3DC01CB01BC01CD0171
:1009100038D3DC01CB019F8F8E8F0FC089E190E02F
:100920009D8F8C8F8C8D9D8D0197F1F79D8F8C8F76
:100930008E8D9F8D01979F8F8E8F8E8D9F8D0097AF
:1009400069F722C068A179A18AA19BA11AD3DC0111
:10095000CB019F8F8E8F8E8D9F8D9B8F8A8F8A8DDF
:100960009B8D0197F1F79B8F8A8F0EC069A57AA5A1
:100970008BA59CA506D3DC01CB0188A788A5898F10
:10098000898D8A95F1F7898F86E090E0BFD080E06D
:1009900090E0A0E2B2E48D8B9E8BAF8BB88F2BEAF8
:1009A0003AEA4AEA5EE36D897E898F89988D8ED313
:1009B000DC01CB01898B9A8BAB8BBC8B20E030E0C8
:1009C00040E85FE369897A898B899C896ED28823A4
:1009D0001CF481E0888B88C020E030E04FE753E4CE
:1009E00069897A898B899C896DD318160CF074C03B
:1009F00020E030E04AE754E46D897E898F89988D44
:100A000058D2DC01CB018C879D87AE87BF8720E061
:100A100030E04AE753E46C857D858E859F8556D30B
:100A2000DC01CB0188879987AA87BB8720E030E06B
:100A300040E85FE3688579858A859B8536D288237F
:100A40002CF481E090E09F838E833BC020E03FEF59
:100A50004FE757E4688579858A859B8533D31816D7
:100A60003CF520E030E040E251E46C857D858E85E8
:100A70009F852CD3DC01CB01BC01CD0182D2DC01EE
:100A8000CB019F838E830FC089E190E09D838C838F
:100A90008C819D810197F1F79D838C838E819F814D
:100AA00001979F838E838E819F81009769F722C073
:100AB000688579858A859B8564D2DC01CB019F831B
:100AC0008E838E819F819B838A838A819B810197FC
:100AD000F1F79B838A830EC069897A898B899C8907
:100AE00050D2DC01CB01888B8889898389818A95E2
:100AF000F1F78983C259DF4F0FB6F894DEBF0FBEFE
:100B0000CDBFCF91DF911F910F910895DF93CF93C8
:100B1000CDB7DEB76A970FB6F894DEBF0FBECDBF74
:100B20009A8F898FA5E3B0E0E5E3F0E080818E7FC6
:100B30008C93E8E3F0E0898D8083A5E3B0E0E5E302
:100B4000F0E080818D7F8C93A5E3B0E0E5E3F0E0F9
:100B5000808184608C9380E090E0A0EAB1E48D8B8A
:100B60009E8BAF8BB88F2BEA3AEA4AEA5EE36D8937
:100B70007E898F89988DAAD2DC01CB01898B9A8BD3
:100B8000AB8BBC8B20E030E040E85FE369897A8979
:100B90008B899C898AD188231CF481E0888B88C04A
:100BA00020E030E04FE753E469897A898B899C899A
:100BB00089D218160CF074C020E030E04AE754E403
:100BC0006D897E898F89988D74D1DC01CB018C87EA
:100BD0009D87AE87BF8720E030E04AE753E46C850D
:100BE0007D858E859F8572D2DC01CB0188879987B0
:100BF000AA87BB8720E030E040E85FE3688579851D
:100C00008A859B8552D188232CF481E090E09F83D4
:100C10008E833BC020E03FEF4FE757E4688579853E
:100C20008A859B854FD218163CF520E030E040E2E3
:100C300051E46C857D858E859F8548D2DC01CB0192
:100C4000BC01CD019ED1DC01CB019F838E830FC0FF
:100C500089E190E09D838C838C819D810197F1F7E0
:100C60009D838C838E819F8101979F838E838E814C
:100C70009F81009769F722C0688579858A859B8561
:100C800080D1DC01CB019F838E838E819F819B83EA
:100C90008A838A819B810197F1F79B838A830EC0A7
:100CA00069897A898B899C896CD1DC01CB01888B1D
:100CB0008889898389818A95F1F78983A5E3B0E0E2
:100CC000E5E3F0E080818B7F8C936A960FB6F89411
:100CD000DEBF0FBECDBFCF91DF910895DF93CF93DD
:100CE000CDB7DEB769970FB6F894DEBF0FBECDBFA4
:100CF000898FA5E3B0E0E5E3F0E0808181608C932B
:100D0000E8E3F0E0898D8083A5E3B0E0E5E3F0E07F
:100D100080818D7F8C93A5E3B0E0E5E3F0E08081F6
:100D200084608C9380E090E0A0EAB1E48D8B9E8B90
:100D3000AF8BB88F2BEA3AEA4AEA5EE36D897E8987
:100D40008F89988DC3D1DC01CB01898B9A8BAB8BBA
:100D5000BC8B20E030E040E85FE369897A898B89C9
:100D60009C89A3D088231CF481E0888B88C020E074
:100D700030E04FE753E469897A898B899C89A2D155
:100D800018160CF074C020E030E04AE754E46D8996
:100D90007E898F89988D8DD0DC01CB018C879D87D2
:100DA000AE87BF8720E030E04AE753E46C857D855D
:100DB0008E859F858BD1DC01CB0188879987AA8797
:100DC000BB8720E030E040E85FE3688579858A856D
:100DD0009B856BD088232CF481E090E09F838E83E9
:100DE0003BC020E03FEF4FE757E4688579858A856F
:100DF0009B8568D118163CF520E030E040E251E4D4
:100E00006C857D858E859F8561D1DC01CB01BC0120
:100E1000CD01B7D0DC01CB019F838E830FC089E168
:100E200090E09D838C838C819D810197F1F79D8358
:100E30008C838E819F8101979F838E838E819F817A
:100E4000009769F722C0688579858A859B8599D046
:100E5000DC01CB019F838E838E819F819B838A835C
:100E60008A819B810197F1F79B838A830EC06989F0
:100E70007A898B899C8985D0DC01CB01888B888914
:100E8000898389818A95F1F78983A5E3B0E0E5E359
:100E9000F0E080818B7F8C9369960FB6F894DEBF6B
:100EA0000FBECDBFCF91DF91089597D008F481E0B8
:100EB00008950CD0CDC0C5D040F0BCD030F021F4A6
:100EC0005F3F19F0AEC05111F7C0B1C0D2D098F356
:100ED0009923C9F35523B1F3951B550BBB27AA27BB
:100EE00062177307840738F09F5F5F4F220F331F2D
:100EF000441FAA1FA9F333D00E2E3AF0E0E830D0F9
:100F000091505040E695001CCAF729D0FE2F27D0FB
:100F1000660F771F881FBB1F261737074807AB07C9
:100F2000B0E809F0BB0B802DBF01FF2793585F4F3E
:100F30002AF09E3F510568F074C0BEC05F3FECF3DD
:100F4000983EDCF3869577956795B795F7959F5F03
:100F5000C9F7880F911D9695879597F90895E1E057
:100F6000660F771F881FBB1F621773078407BA07B6
:100F700020F0621B730B840BBA0BEE1F88F7E09511
:100F800008957FD088F09F5790F0B92F9927B751D7
:100F9000A0F0D1F0660F771F881F991F1AF0BA953D
:100FA000C9F712C0B13081F086D0B1E0089583C096
:100FB000672F782F8827B85F39F0B93FCCF3869533
:100FC00077956795B395D9F73EF490958095709590
:100FD00061957F4F8F4F9F4F0895990F0008550FD0
:100FE000AA0BE0E8FEEF16161706E807F907C0F0AF
:100FF00012161306E407F50798F0621B730B840BB7
:10100000950B39F40A2661F0232B242B252B21F490
:1010100008950A2609F4A140A6958FEF811D811D30
:10102000089597F99F6780E870E060E008959FEF6A
:1010300080EC089500240A9416161706180609066F
:10104000089500240A94121613061406050608953E
:10105000092E0394000C11F4882352F0BB0F40F4C6
:10106000BF2B11F460FF04C06F5F7F4F8F4F9F4F06
:10107000089557FD9058440F551F59F05F3F71F088
:101080004795880F97FB991F61F09F3F79F08795EF
:101090000895121613061406551FF2CF4695F1DF78
:1010A00008C0161617061806991FF1CF8695710508
:1010B000610508940895E894BB2766277727CB013C
:1010C00097F908958ADF08F48FEF08950BD0C0CF09
:1010D000B1DF28F0B6DF18F0952309F0A2CFA7CF33
:1010E0001124EACFC6DFA0F3959FD1F3950F50E00E
:1010F000551F629FF001729FBB27F00DB11D639FCA
:10110000AA27F00DB11DAA1F649F6627B00DA11D6F
:10111000661F829F2227B00DA11D621F739FB00D15
:10112000A11D621F839FA00D611D221F749F332785
:10113000A00D611D231F849F600D211D822F762F1E
:101140006A2F11249F5750408AF0E1F088234AF01B
:10115000EE0FFF1FBB1F661F771F881F9150504067
:10116000A9F79E3F510570F05CCFA6CF5F3FECF32F
:10117000983EDCF3869577956795B795F795E79553
:101180009F5FC1F7FE2B880F911D9695879597F964
:061190000895F894FFCF62
:0E11960048656C6C6F204344414321200000EB
:00000001FF
