:1000000012C02CC02BC02AC029C028C027C026C0BF
:1000100025C024C023C022C021C020C01FC01EC0D4
:100020001DC01CC01BC011241FBECFE5D4E0DEBF25
:10003000CDBF10E0A0E6B0E0E6EDFDE002C0059027
:100040000D92A637B107D9F710E0A6E7B0E001C0DE
:100050001D92A637B107E1F7C5D3BBC6D1CFDF9359
:10006000CF93CDB7DEB7E7970FB6F894DEBF0FBEDC
:10007000CDBF8FAB8FA9807F8EABE2E3F0E08EA97E
:100080008083A8E3B0E0E8E3F0E080818F7D8C938B
:10009000A8E3B0E0E8E3F0E0808180618C9380E049
:1000A00090E0A0E2B1E489AB9AABABABBCAB20E093
:1000B00030E04AEF54E469A97AA98BA99CA926D615
:1000C000DC01CB018DA79EA7AFA7B8AB20E030E045
:1000D00040E85FE36DA57EA58FA598A906D5882386
:1000E0002CF481E090E09CA78BA73BC020E03FEF81
:1000F0004FE757E46DA57EA58FA598A903D61816DE
:100100003CF520E030E040E251E469A97AA98BA9EE
:100110009CA9FCD5DC01CB01BC01CD0152D5DC0191
:10012000CB019CA78BA70FC088EC90E09AA789A76A
:1001300089A59AA50197F1F79AA789A78BA59CA5F0
:1001400001979CA78BA78BA59CA5009769F713C067
:100150006DA57EA58FA598A934D5DC01CB019CA700
:100160008BA78BA59CA598A78FA38FA198A5019776
:10017000F1F798A78FA3A8E3B0E0E8E3F0E080816F
:100180008F7E8C9380E090E0A8ECB2E48BA39CA3DC
:10019000ADA3BEA32BEA3AEA4AE250E46BA17CA1EC
:1001A0008DA19EA1B3D5DC01CB018F8F98A3A9A30C
:1001B000BAA320E030E040E85FE36F8D78A189A129
:1001C0009AA193D488231CF481E08E8F88C020E00C
:1001D00030E04FE753E46F8D78A189A19AA192D5C1
:1001E00018160CF074C020E030E04AE754E46BA12C
:1001F0007CA18DA19EA17DD4DC01CB018A8F9B8F38
:10020000AC8FBD8F20E030E04AEF54E46A8D7B8DE7
:100210008C8D9D8D7BD5DC01CB018E8B9F8BA88F28
:10022000B98F20E030E040E85FE36E897F89888DF8
:10023000998D5BD488232CF481E090E09D8B8C8B8E
:100240003BC020E03FEF4FE757E46E897F89888D00
:10025000998D58D518163CF520E030E040E251E485
:100260006A8D7B8D8C8D9D8D51D5DC01CB01BC01C0
:10027000CD01A7D4DC01CB019D8B8C8B0FC088EC0A
:1002800090E09B8B8A8B8A899B890197F1F79B8BE6
:100290008A8B8C899D8901979D8B8C8B8C899D89FC
:1002A000009769F722C06E897F89888D998D89D4DE
:1002B000DC01CB019D8B8C8B8C899D89998B888BE4
:1002C000888999890197F1F7998B888B0EC06F8D7A
:1002D00078A189A19AA175D4DC01CB018E8F8E8D76
:1002E0008F878F858A95F1F78F878FA98295807F79
:1002F0008DABE2E3F0E08DA98083A8E3B0E0E8E312
:10030000F0E080818F7D8C93A8E3B0E0E8E3F0E03B
:10031000808180618C9380E090E0A0E2B1E48B87E3
:100320009C87AD87BE8720E030E04AEF54E46B85C0
:100330007C858D859E85EAD4DC01CB018F839887EF
:10034000A987BA8720E030E040E85FE36F817885D5
:1003500089859A85CAD388232CF481E090E09E8316
:100360008D833BC020E03FEF4FE757E46F817885F6
:1003700089859A85C7D418163CF520E030E040E224
:1003800051E46B857C858D859E85C0D4DC01CB01D5
:10039000BC01CD0116D4DC01CB019E838D830FC03F
:1003A00088EC90E09C838B838B819C810197F1F793
:1003B0009C838B838D819E8101979E838D838D810C
:1003C0009E81009769F713C06F81788589859A852A
:1003D000F8D3DC01CB019E838D838D819E819A832E
:1003E000898389819A810197F1F79A838983A8E3A8
:1003F000B0E0E8E3F0E080818F7E8C93E7960FB663
:10040000F894DEBF0FBECDBFCF91DF910895DF938B
:10041000CF93CDB7DEB7E7970FB6F894DEBF0FBE28
:10042000CDBF8FAB8FA9807F8EABE2E3F0E08EA9CA
:100430008083A8E3B0E0E8E3F0E0808180628C9301
:10044000A8E3B0E0E8E3F0E0808180618C9380E095
:1004500090E0A0E2B1E489AB9AABABABBCAB20E0DF
:1004600030E04AEF54E469A97AA98BA99CA94ED43B
:10047000DC01CB018DA79EA7AFA7B8AB20E030E091
:1004800040E85FE36DA57EA58FA598A92ED38823AC
:100490002CF481E090E09CA78BA73BC020E03FEFCD
:1004A0004FE757E46DA57EA58FA598A92BD4181604
:1004B0003CF520E030E040E251E469A97AA98BA93B
:1004C0009CA924D4DC01CB01BC01CD017AD3DC0191
:1004D000CB019CA78BA70FC088EC90E09AA789A7B7
:1004E00089A59AA50197F1F79AA789A78BA59CA53D
:1004F00001979CA78BA78BA59CA5009769F713C0B4
:100500006DA57EA58FA598A95CD3DC01CB019CA726
:100510008BA78BA59CA598A78FA38FA198A50197C2
:10052000F1F798A78FA3A8E3B0E0E8E3F0E08081BB
:100530008F7E8C9380E090E0A8ECB2E48BA39CA328
:10054000ADA3BEA32BEA3AEA4AE250E46BA17CA138
:100550008DA19EA1DBD3DC01CB018F8F98A3A9A332
:10056000BAA320E030E040E85FE36F8D78A189A175
:100570009AA1BBD288231CF481E08E8F88C020E032
:1005800030E04FE753E46F8D78A189A19AA1BAD3E7
:1005900018160CF074C020E030E04AE754E46BA178
:1005A0007CA18DA19EA1A5D2DC01CB018A8F9B8F5E
:1005B000AC8FBD8F20E030E04AEF54E46A8D7B8D34
:1005C0008C8D9D8DA3D3DC01CB018E8B9F8BA88F4F
:1005D000B98F20E030E040E85FE36E897F89888D45
:1005E000998D83D288232CF481E090E09D8B8C8BB5
:1005F0003BC020E03FEF4FE757E46E897F89888D4D
:10060000998D80D318163CF520E030E040E251E4AB
:100610006A8D7B8D8C8D9D8D79D3DC01CB01BC01E6
:10062000CD01CFD2DC01CB019D8B8C8B0FC088EC30
:1006300090E09B8B8A8B8A899B890197F1F79B8B32
:100640008A8B8C899D8901979D8B8C8B8C899D8948
:10065000009769F722C06E897F89888D998DB1D204
:10066000DC01CB019D8B8C8B8C899D89998B888B30
:10067000888999890197F1F7998B888B0EC06F8DC6
:1006800078A189A19AA19DD2DC01CB018E8F8E8D9C
:100690008F878F858A95F1F78F878FA98295807FC5
:1006A0008DABE2E3F0E08DA98083A8E3B0E0E8E35E
:1006B000F0E0808180628C93A8E3B0E0E8E3F0E0B2
:1006C000808180618C9380E090E0A0E2B1E48B8730
:1006D0009C87AD87BE8720E030E04AEF54E46B850D
:1006E0007C858D859E8512D3DC01CB018F83988715
:1006F000A987BA8720E030E040E85FE36F81788522
:1007000089859A85F2D188232CF481E090E09E833C
:100710008D833BC020E03FEF4FE757E46F81788542
:1007200089859A85EFD218163CF520E030E040E24A
:1007300051E46B857C858D859E85E8D2DC01CB01FB
:10074000BC01CD013ED2DC01CB019E838D830FC065
:1007500088EC90E09C838B838B819C810197F1F7DF
:100760009C838B838D819E8101979E838D838D8158
:100770009E81009769F713C06F81788589859A8576
:1007800020D2DC01CB019E838D838D819E819A8353
:10079000898389819A810197F1F79A838983A8E3F4
:1007A000B0E0E8E3F0E080818F7E8C93E7960FB6AF
:1007B000F894DEBF0FBECDBFCF91DF910895DF93D8
:1007C000CF93CDB7DEB788E24ADC82E048DC8EE02A
:1007D00046DC86E044DC81E042DC80E840DCCF910E
:1007E000DF910895DF93CF93CDB7DEB7ED970FB6C6
:1007F000F894DEBF0FBECDBFE1E3F0E080EF808371
:10080000A7E3B0E0E7E3F0E0808180618C93A7E3A9
:10081000B0E0E7E3F0E0808180628C93A7E3B0E092
:10082000E7E3F0E0808188608C93C9DFCE014F96CA
:100830009DAB8CABE0E6F0E0FFABEEABFDE0F8AFDC
:10084000EEA9FFA900808EA99FA901969FAB8EAB50
:10085000ECA9FDA900828CA99DA901969DAB8CAB4A
:1008600098AD915098AFE8ADEE2351F7CE018C963C
:100870009AAF89AFEDE6F0E0FCAFEBAFF8E0FDAF8B
:10088000EBADFCAD00808BAD9CAD01969CAF8BAF0A
:10089000E9ADFAAD008289AD9AAD01969AAF89AF04
:1008A0009DAD91509DAFEDADEE2351F71E8E1D8E87
:1008B0007BC02D8D3E8DCE014F96FC01E20FF31FC4
:1008C00020818D8D9E8D01969E8F8D8F822F9FDD35
:1008D00080E090E0A0E2B1E4898F9A8FAB8FBC8F6B
:1008E00020E030E04AEF54E4698D7A8D8B8D9C8D49
:1008F0000DD2DC01CB018D8B9E8BAF8BB88F20E0AE
:1009000030E040E85FE36D897E898F89988DEDD076
:1009100088232CF481E090E09C8B8B8B3BC020E003
:100920003FEF4FE757E46D897E898F89988DEAD133
:1009300018163CF520E030E040E251E4698D7A8DF4
:100940008B8D9C8DE3D1DC01CB01BC01CD0139D174
:10095000DC01CB019C8B8B8B0FC088EC90E09A8BD9
:10096000898B89899A890197F1F79A8B898B8B8971
:100970009C8901979C8B8B8B8B899C89009769F74D
:1009800013C06D897E898F89988D1BD1DC01CB01C5
:100990009C8B8B8B8B899C89988B8F878F85988973
:1009A0000197F1F7988B8F872D8D3E8DCE014F9655
:1009B000FC01E20FF31F8081882309F07ACF80ECDD
:1009C0004EDB1E8E1D8E7BC02D8D3E8DCE018C96F6
:1009D000FC01E20FF31F20818D8D9E8D01969E8F6D
:1009E0008D8F822F14DD80E090E0A0E2B1E48B8750
:1009F0009C87AD87BE8720E030E04AEF54E46B85EA
:100A00007C858D859E8582D1DC01CB018F83988783
:100A1000A987BA8720E030E040E85FE36F817885FE
:100A200089859A8562D088232CF481E090E09E83AA
:100A30008D833BC020E03FEF4FE757E46F8178851F
:100A400089859A855FD118163CF520E030E040E2B8
:100A500051E46B857C858D859E8558D1DC01CB0169
:100A6000BC01CD01AED0DC01CB019E838D830FC0D4
:100A700088EC90E09C838B838B819C810197F1F7BC
:100A80009C838B838D819E8101979E838D838D8135
:100A90009E81009769F713C06F81788589859A8553
:100AA00090D0DC01CB019E838D838D819E819A83C2
:100AB000898389819A810197F1F79A8389832D8DA2
:100AC0003E8DCE018C96FC01E20FF31F80818823BE
:100AD00009F07ACF80E090E0ED960FB6F894DEBF93
:100AE0000FBECDBFCF91DF91089597D008F481E07C
:100AF00008950CD0CDC0C5D040F0BCD030F021F46A
:100B00005F3F19F0AEC05111F7C0B1C0D2D098F319
:100B10009923C9F35523B1F3951B550BBB27AA277E
:100B200062177307840738F09F5F5F4F220F331FF0
:100B3000441FAA1FA9F333D00E2E3AF0E0E830D0BC
:100B400091505040E695001CCAF729D0FE2F27D0BF
:100B5000660F771F881FBB1F261737074807AB078D
:100B6000B0E809F0BB0B802DBF01FF2793585F4F02
:100B70002AF09E3F510568F074C0BEC05F3FECF3A1
:100B8000983EDCF3869577956795B795F7959F5FC7
:100B9000C9F7880F911D9695879597F90895E1E01B
:100BA000660F771F881FBB1F621773078407BA077A
:100BB00020F0621B730B840BBA0BEE1F88F7E095D5
:100BC00008957FD088F09F5790F0B92F9927B7519B
:100BD000A0F0D1F0660F771F881F991F1AF0BA9501
:100BE000C9F712C0B13081F086D0B1E0089583C05A
:100BF000672F782F8827B85F39F0B93FCCF38695F7
:100C000077956795B395D9F73EF490958095709553
:100C100061957F4F8F4F9F4F0895990F0008550F93
:100C2000AA0BE0E8FEEF16161706E807F907C0F072
:100C300012161306E407F50798F0621B730B840B7A
:100C4000950B39F40A2661F0232B242B252B21F454
:100C500008950A2609F4A140A6958FEF811D811DF4
:100C6000089597F99F6780E870E060E008959FEF2E
:100C700080EC089500240A94161617061806090633
:100C8000089500240A941216130614060506089502
:100C9000092E0394000C11F4882352F0BB0F40F48A
:100CA000BF2B11F460FF04C06F5F7F4F8F4F9F4FCA
:100CB000089557FD9058440F551F59F05F3F71F04C
:100CC0004795880F97FB991F61F09F3F79F08795B3
:100CD0000895121613061406551FF2CF4695F1DF3C
:100CE00008C0161617061806991FF1CF86957105CC
:100CF000610508940895E894BB2766277727CB0100
:100D000097F908958ADF08F48FEF08950BD0C0CFCC
:100D1000B1DF28F0B6DF18F0952309F0A2CFA7CFF6
:100D20001124EACFC6DFA0F3959FD1F3950F50E0D1
:100D3000551F629FF001729FBB27F00DB11D639F8D
:100D4000AA27F00DB11DAA1F649F6627B00DA11D33
:100D5000661F829F2227B00DA11D621F739FB00DD9
:100D6000A11D621F839FA00D611D221F749F332749
:100D7000A00D611D231F849F600D211D822F762FE2
:100D80006A2F11249F5750408AF0E1F088234AF0DF
:100D9000EE0FFF1FBB1F661F771F881F915050402B
:100DA000A9F79E3F510570F05CCFA6CF5F3FECF3F3
:100DB000983EDCF3869577956795B795F795E79517
:100DC0009F5FC1F7FE2B880F911D9695879597F928
:060DD0000895F894FFCF26
:100DD60048454C4C4F20574F524C44210057454CE8
:060DE600434F4D450000E3
:00000001FF
