:1000000012C02DC02BC02AC029C028C027C026C0BE
:1000100025C024C023C022C021C020C01FC01EC0D4
:100020001DC01CC01BC011241FBECFE5D4E0DEBF25
:10003000CDBF10E0A0E6B0E0E0EDF9E002C0059031
:100040000D92A637B107D9F710E0A6E7B0E001C0DE
:100050001D92A837B107E1F73BD2B8C4D1CF1F92A8
:100060000F920FB60F921124DF93CF93CDB7DEB767
:10007000CF91DF910F900FBE0F901F901895DF93D7
:10008000CF93CDB7DEB76F970FB6F894DEBF0FBE34
:10009000CDBF8F8F8F8D807F8E8FE8E3F0E08E8DC8
:1000A0008460808380E090E0A0E2B1E4898F9A8F41
:1000B000AB8FBC8F20E030E04AE753E4698D7A8D46
:1000C0008B8D9C8DF8D3DC01CB018D8B9E8BAF8B00
:1000D000B88F20E030E040E85FE36D897E898F894A
:1000E000988D68D388232CF481E090E09C8B8B8BD7
:1000F0003BC020E03FEF4FE757E46D897E898F8951
:10010000988DD5D318163CF520E030E040E251E45C
:10011000698D7A8D8B8D9C8DCED3DC01CB01BC019A
:10012000CD014CD3DC01CB019C8B8B8B0FC089E1C3
:1001300090E09A8B898B89899A890197F1F79A8B3C
:10014000898B8B899C8901979C8B8B8B8B899C8954
:10015000009769F713C06D897E898F89988D2ED39A
:10016000DC01CB019C8B8B8B8B899C89988B8F8737
:100170008F8598890197F1F7988B8F87A8E3B0E076
:10018000E8E3F0E080818B7F8C938F8D8295807F78
:100190008D8FE8E3F0E08D8D8460808380E090E0D7
:1001A000A0E2B1E48B879C87AD87BE8720E030E07A
:1001B0004AE753E46B857C858D859E857CD3DC0185
:1001C000CB018F839887A987BA8720E030E040E889
:1001D0005FE36F81788589859A85ECD288232CF43A
:1001E00081E090E09E838D833BC020E03FEF4FE7AE
:1001F00057E46F81788589859A8559D318163CF51F
:1002000020E030E040E251E46B857C858D859E8561
:1002100052D3DC01CB01BC01CD01D0D2DC01CB013A
:100220009E838D830FC089E190E09C838B838B81BB
:100230009C810197F1F79C838B838D819E8101972F
:100240009E838D838D819E81009769F713C06F8196
:10025000788589859A85B2D2DC01CB019E838D8316
:100260008D819E819A83898389819A810197F1F793
:100270009A838983A8E3B0E0E8E3F0E080818B7F94
:100280008C936F960FB6F894DEBF0FBECDBFCF91A3
:10029000DF910895DF93CF93CDB7DEB76F970FB699
:1002A000F894DEBF0FBECDBF8F8F8F8D807F8E8F76
:1002B000E8E3F0E08E8D8560808380E090E0A0E24E
:1002C000B1E4898F9A8FAB8FBC8F20E030E04AE792
:1002D00053E4698D7A8D8B8D9C8DEDD2DC01CB0141
:1002E0008D8B9E8BAF8BB88F20E030E040E85FE3D2
:1002F0006D897E898F89988D5DD288232CF481E069
:1003000090E09C8B8B8B3BC020E03FEF4FE757E4A6
:100310006D897E898F89988DCAD218163CF520E0A8
:1003200030E040E251E4698D7A8D8B8D9C8DC3D293
:10033000DC01CB01BC01CD0141D2DC01CB019C8BA6
:100340008B8B0FC089E190E09A8B898B89899A8980
:100350000197F1F79A8B898B8B899C8901979C8BEC
:100360008B8B8B899C89009769F713C06D897E8977
:100370008F89988D23D2DC01CB019C8B8B8B8B8951
:100380009C89988B8F878F8598890197F1F7988B37
:100390008F87A8E3B0E0E8E3F0E080818B7F8C9367
:1003A0008F8D8295807F8D8FE8E3F0E08D8D856065
:1003B000808380E090E0A0E2B1E48B879C87AD87EA
:1003C000BE8720E030E04AE753E46B857C858D856D
:1003D0009E8571D2DC01CB018F839887A987BA876C
:1003E00020E030E040E85FE36F81788589859A8579
:1003F000E1D188232CF481E090E09E838D833BC083
:1004000020E03FEF4FE757E46F81788589859A8533
:100410004ED218163CF520E030E040E251E46B8506
:100420007C858D859E8547D2DC01CB01BC01CD0149
:10043000C5D1DC01CB019E838D830FC089E190E0A3
:100440009C838B838B819C810197F1F79C838B83A9
:100450008D819E8101979E838D838D819E810097E2
:1004600069F713C06F81788589859A85A7D1DC01EA
:10047000CB019E838D838D819E819A83898389811F
:100480009A810197F1F79A838983A8E3B0E0E8E3C2
:10049000F0E080818B7F8C936F960FB6F894DEBF6F
:1004A0000FBECDBFCF91DF910895DF93CF93CDB72E
:1004B000DEB788E2E4DD82E0E2DD8EE0E0DD86E0CA
:1004C000DEDD81E0DCDD80E8DADDCF91DF910895CB
:1004D000DF93CF93CDB7DEB7ED970FB6F894DEBFBD
:1004E0000FBECDBFE4E3F0E08FEF8083E7E3F0E001
:1004F0008FEF8083DADFCE014F969DAB8CABE0E6C9
:10050000F0E0FFABEEABFDE0F8AFEEA9FFA9008095
:100510008EA99FA901969FAB8EABECA9FDA9008285
:100520008CA99DA901969DAB8CAB98AD915098AFCD
:10053000E8ADEE2351F7CE018C969AAF89AFEDE688
:10054000F0E0FCAFEBAFF8E0FDAFEBADFCAD008051
:100550008BAD9CAD01969CAF8BAFE9ADFAAD00823F
:1005600089AD9AAD01969AAF89AF9DAD91509DAF7F
:10057000EDADEE2351F71E8E1D8E7BC02D8D3E8D71
:10058000CE014F96FC01E20FF31F20818D8D9E8DD1
:1005900001969E8F8D8F822F7DDE80E090E0A0E21D
:1005A000B2E4898F9A8FAB8FBC8F20E030E04AE7AE
:1005B00053E4698D7A8D8B8D9C8D7DD1DC01CB01CF
:1005C0008D8B9E8BAF8BB88F20E030E040E85FE3EF
:1005D0006D897E898F89988DEDD088232CF481E0F8
:1005E00090E09C8B8B8B3BC020E03FEF4FE757E4C4
:1005F0006D897E898F89988D5AD118163CF520E037
:1006000030E040E251E4698D7A8D8B8D9C8D53D121
:10061000DC01CB01BC01CD01D1D0DC01CB019C8B35
:100620008B8B0FC089E190E09A8B898B89899A899D
:100630000197F1F79A8B898B8B899C8901979C8B09
:100640008B8B8B899C89009769F713C06D897E8994
:100650008F89988DB3D0DC01CB019C8B8B8B8B89E0
:100660009C89988B8F878F8598890197F1F7988B54
:100670008F872D8D3E8DCE014F96FC01E20FF31F2B
:100680008081882309F07ACF80ECF9DC1E8E1D8EE4
:100690007BC02D8D3E8DCE018C96FC01E20FF31FA9
:1006A00020818D8D9E8D01969E8F8D8F822FF2DD04
:1006B00080E090E0A0E2B2E48B879C87AD87BE87A4
:1006C00020E030E04AE753E46B857C858D859E858C
:1006D000F2D0DC01CB018F839887A987BA8720E00D
:1006E00030E040E85FE36F81788589859A8562D044
:1006F00088232CF481E090E09E838D833BC020E032
:100700003FEF4FE757E46F81788589859A85CFD091
:1007100018163CF520E030E040E251E46B857C8522
:100720008D859E85C8D0DC01CB01BC01CD0146D0B2
:10073000DC01CB019E838D830FC089E190E09C8317
:100740008B838B819C810197F1F79C838B838D81B7
:100750009E8101979E838D838D819E81009769F78D
:1007600013C06F81788589859A8528D0DC01CB01FB
:100770009E838D838D819E819A83898389819A81CD
:100780000197F1F79A8389832D8D3E8DCE018C964A
:10079000FC01E20FF31F8081882309F07ACF80E00B
:1007A00090E0ED960FB6F894DEBF0FBECDBFCF91AF
:1007B000DF9108952FD008F481E0089557D088F094
:1007C0009F5790F0B92F9927B751A0F0D1F0660F3D
:1007D000771F881F991F1AF0BA95C9F712C0B13058
:1007E00081F05ED0B1E008955BC0672F782F882735
:1007F000B85F39F0B93FCCF3869577956795B39597
:10080000D9F73EF490958095709561957F4F8F4F05
:100810009F4F0895990F0008550FAA0BE0E8FEEFCF
:1008200016161706E807F907C0F012161306E407B4
:10083000F50798F0621B730B840B950B39F40A26AD
:1008400061F0232B242B252B21F408950A2609F48B
:10085000A140A6958FEF811D811D089557FD9058E9
:10086000440F551F59F05F3F71F04795880F97FB74
:10087000991F61F09F3F79F087950895121613062E
:100880001406551FF2CF4695F1DF08C0161617065D
:100890001806991FF1CF8695710561050894089592
:1008A000E894BB2766277727CB0197F90895B2DF35
:1008B00008F48FEF08950BD078C069D028F06ED07F
:1008C00018F0952309F05AC05FC01124EACFC6DFA3
:1008D000A0F3959FD1F3950F50E0551F629FF00153
:1008E000729FBB27F00DB11D639FAA27F00DB11DAC
:1008F000AA1F649F6627B00DA11D661F829F222735
:10090000B00DA11D621F739FB00DA11D621F839FBB
:10091000A00D611D221F749F3327A00D611D231F91
:10092000849F600D211D822F762F6A2F11249F57DF
:1009300050408AF0E1F088234AF0EE0FFF1FBB1F02
:10094000661F771F881F91505040A9F79E3F5105A1
:1009500070F014C0A6CF5F3FECF3983EDCF38695B1
:1009600077956795B795F795E7959F5FC1F7FE2B4C
:10097000880F911D9695879597F9089597F99F6728
:1009800080E870E060E008959FEF80EC0895002417
:100990000A941616170618060906089500240A94E4
:1009A00012161306140605060895092E0394000C6A
:1009B00011F4882352F0BB0F40F4BF2B11F460FFF9
:1009C00004C06F5F7F4F8F4F9F4F0895F894FFCF04
:1009D00048454C4C4F20574F524C44210057454CF2
:0609E000434F4D450000ED
:00000001FF
