:1000000012C02CC02BC02AC029C028C027C027C0BE
:1000100025C024C023C022C021C020C01FC01EC0D4
:100020001DC01CC01BC011241FBECFE5D4E0DEBF25
:10003000CDBF10E0A0E6B0E0E8E2F1E002C005903C
:100040000D92A036B107D9F710E0A0E6B0E001C0EC
:100050001D92A036B107E1F731D064C0D1CF1F9215
:100060000F920FB60F9211242F938F939F93EF93BC
:10007000FF93DF93CF93CDB7DEB7E8E4F0E0808164
:1000800091812AE78231920739F4E8E4F0E089E0CF
:100090009DE39183808306C0E8E4F0E082E19AE783
:1000A00091838083CF91DF91FF91EF919F918F9109
:1000B0002F910F900FBE0F901F901895DF93CF9345
:1000C000CDB7DEB7A7E3B0E0E7E3F0E0808186607C
:1000D0008C93ECE4F0E011821082EAE4F0E082E13B
:1000E0009AE791838083E8E4F0E089E09DE39183DF
:1000F0008083A9E5B0E0E9E5F0E0808188608C9339
:10010000EFE4F0E080E58083EEE4F0E08BE08083D4
:10011000A5E5B0E0E5E5F0E0808180688C93789417
:080120008895FECFF894FFCF93
:00000001FF
