:1000000012C02CC02BC02AC029C028C027C026C0BF
:1000100025C024C023C022C021C020C020C01EC0D3
:100020001DC01CC01BC011241FBECFE5D4E0DEBF25
:10003000CDBF10E0A0E6B0E0E4EBF1E002C0059037
:100040000D92A036B107D9F710E0A0E6B0E001C0EC
:100050001D92A636B107E1F77DD0AAC0D1CF1F927D
:100060000F920FB60F9211248F939F93EF93FF93EC
:10007000DF93CF93CDB7DEB7E4E2F0E08081882F45
:1000800090E09093630080936200E5E2F0E080816D
:10009000882F90E0909365008093640081E090E069
:1000A0009093610080936000CF91DF91FF91EF9179
:1000B0009F918F910F900FBE0F901F901895DF9317
:1000C000CF93CDB7DEB7A7E2B0E0E7E2F0E0808102
:1000D000806C8C93A6E2B0E0E6E2F0E080818B6871
:1000E0008C93A6E2B0E0E6E2F0E0808180648C933D
:1000F000CF91DF910895DF93CF93CDB7DEB7E0E4E2
:10010000F0E01082E9E2F0E08CE08083EAE2F0E0E7
:1001100088E08083E0E4F0E086E88083CF91DF919F
:100120000895DF93CF9300D0CDB7DEB79A8389834C
:10013000EBE2F0E08081882F90E080729070009771
:10014000B9F3ECE2F0E0898180830F900F90CF91BA
:10015000DF910895DF93CF93CDB7DEB7A7E3B0E08B
:10016000E7E3F0E080818E6F8C93A8E3B0E0E8E3F2
:10017000F0E0808181608C93BEDF7894A0DF809175
:1001800060009091610081309105C9F71092610083
:10019000109260008091620090916300C2DF0000C5
:1001A000A6E2B0E0E6E2F0E0808180648C93E7CFE5
:0401B000F894FFCFF1
:00000001FF
